{
  "contractName": "RideManager",
  "abi": [
    {
      "inputs": [],
      "payable": false,
      "stateMutability": "nonpayable",
      "type": "constructor"
    },
    {
      "anonymous": false,
      "inputs": [
        {
          "indexed": true,
          "internalType": "address",
          "name": "_address",
          "type": "address"
        },
        {
          "indexed": false,
          "internalType": "bytes32",
          "name": "name",
          "type": "bytes32"
        }
      ],
      "name": "DriverRegister",
      "type": "event"
    },
    {
      "anonymous": false,
      "inputs": [
        {
          "indexed": true,
          "internalType": "address",
          "name": "_address",
          "type": "address"
        },
        {
          "indexed": false,
          "internalType": "bytes32",
          "name": "name",
          "type": "bytes32"
        }
      ],
      "name": "RiderRegister",
      "type": "event"
    },
    {
      "anonymous": false,
      "inputs": [
        {
          "indexed": false,
          "internalType": "address payable",
          "name": "_riderAddr",
          "type": "address"
        },
        {
          "indexed": false,
          "internalType": "address payable",
          "name": "_driverAddr",
          "type": "address"
        },
        {
          "indexed": false,
          "internalType": "address",
          "name": "rideAddr",
          "type": "address"
        }
      ],
      "name": "requestDriverEvent",
      "type": "event"
    },
    {
      "constant": true,
      "inputs": [
        {
          "internalType": "address",
          "name": "",
          "type": "address"
        }
      ],
      "name": "driversMapping",
      "outputs": [
        {
          "internalType": "bytes32",
          "name": "name",
          "type": "bytes32"
        },
        {
          "internalType": "bytes32",
          "name": "contact",
          "type": "bytes32"
        },
        {
          "internalType": "bytes32",
          "name": "email",
          "type": "bytes32"
        },
        {
          "internalType": "bytes32",
          "name": "carNo",
          "type": "bytes32"
        },
        {
          "internalType": "uint256",
          "name": "noOfSeats",
          "type": "uint256"
        },
        {
          "internalType": "uint256",
          "name": "rating",
          "type": "uint256"
        },
        {
          "internalType": "enum RideManager.roles",
          "name": "role",
          "type": "uint8"
        },
        {
          "internalType": "enum RideManager.currentStatus",
          "name": "status",
          "type": "uint8"
        },
        {
          "internalType": "address payable",
          "name": "driverAddr",
          "type": "address"
        }
      ],
      "payable": false,
      "stateMutability": "view",
      "type": "function"
    },
    {
      "constant": true,
      "inputs": [
        {
          "internalType": "address",
          "name": "",
          "type": "address"
        }
      ],
      "name": "ridersMapping",
      "outputs": [
        {
          "internalType": "bytes32",
          "name": "name",
          "type": "bytes32"
        },
        {
          "internalType": "bytes32",
          "name": "contact",
          "type": "bytes32"
        },
        {
          "internalType": "bytes32",
          "name": "email",
          "type": "bytes32"
        },
        {
          "internalType": "enum RideManager.roles",
          "name": "role",
          "type": "uint8"
        },
        {
          "internalType": "address payable",
          "name": "riderAddr",
          "type": "address"
        }
      ],
      "payable": false,
      "stateMutability": "view",
      "type": "function"
    },
    {
      "constant": false,
      "inputs": [
        {
          "internalType": "bytes32",
          "name": "_name",
          "type": "bytes32"
        },
        {
          "internalType": "bytes32",
          "name": "_contact",
          "type": "bytes32"
        },
        {
          "internalType": "bytes32",
          "name": "_email",
          "type": "bytes32"
        },
        {
          "internalType": "uint256",
          "name": "_role",
          "type": "uint256"
        },
        {
          "internalType": "address payable",
          "name": "_riderAddr",
          "type": "address"
        }
      ],
      "name": "registerRider",
      "outputs": [],
      "payable": false,
      "stateMutability": "nonpayable",
      "type": "function"
    },
    {
      "constant": true,
      "inputs": [
        {
          "internalType": "address payable",
          "name": "_riderAddr",
          "type": "address"
        }
      ],
      "name": "getRiderInfo",
      "outputs": [
        {
          "components": [
            {
              "internalType": "bytes32",
              "name": "name",
              "type": "bytes32"
            },
            {
              "internalType": "bytes32",
              "name": "contact",
              "type": "bytes32"
            },
            {
              "internalType": "bytes32",
              "name": "email",
              "type": "bytes32"
            },
            {
              "internalType": "enum RideManager.roles",
              "name": "role",
              "type": "uint8"
            },
            {
              "internalType": "address payable",
              "name": "riderAddr",
              "type": "address"
            },
            {
              "internalType": "address[]",
              "name": "rides",
              "type": "address[]"
            }
          ],
          "internalType": "struct RideManager.riderStruct",
          "name": "_riderStruct",
          "type": "tuple"
        }
      ],
      "payable": false,
      "stateMutability": "view",
      "type": "function"
    },
    {
      "constant": false,
      "inputs": [
        {
          "internalType": "address payable",
          "name": "_riderAddr",
          "type": "address"
        }
      ],
      "name": "cancelRide",
      "outputs": [
        {
          "internalType": "bool",
          "name": "",
          "type": "bool"
        }
      ],
      "payable": false,
      "stateMutability": "nonpayable",
      "type": "function"
    },
    {
      "constant": false,
      "inputs": [
        {
          "internalType": "bytes32",
          "name": "_name",
          "type": "bytes32"
        },
        {
          "internalType": "bytes32",
          "name": "_contact",
          "type": "bytes32"
        },
        {
          "internalType": "bytes32",
          "name": "_email",
          "type": "bytes32"
        },
        {
          "internalType": "bytes32",
          "name": "_carNo",
          "type": "bytes32"
        },
        {
          "internalType": "uint256",
          "name": "_seats",
          "type": "uint256"
        },
        {
          "internalType": "uint256",
          "name": "_role",
          "type": "uint256"
        },
        {
          "internalType": "address payable",
          "name": "_driverAddr",
          "type": "address"
        }
      ],
      "name": "registerDriver",
      "outputs": [],
      "payable": false,
      "stateMutability": "nonpayable",
      "type": "function"
    },
    {
      "constant": true,
      "inputs": [
        {
          "internalType": "address payable",
          "name": "_driverAddr",
          "type": "address"
        }
      ],
      "name": "getDriverInfo",
      "outputs": [
        {
          "components": [
            {
              "internalType": "bytes32",
              "name": "name",
              "type": "bytes32"
            },
            {
              "internalType": "bytes32",
              "name": "contact",
              "type": "bytes32"
            },
            {
              "internalType": "bytes32",
              "name": "email",
              "type": "bytes32"
            },
            {
              "internalType": "bytes32",
              "name": "carNo",
              "type": "bytes32"
            },
            {
              "internalType": "uint256",
              "name": "noOfSeats",
              "type": "uint256"
            },
            {
              "internalType": "uint256",
              "name": "rating",
              "type": "uint256"
            },
            {
              "internalType": "enum RideManager.roles",
              "name": "role",
              "type": "uint8"
            },
            {
              "internalType": "enum RideManager.currentStatus",
              "name": "status",
              "type": "uint8"
            },
            {
              "internalType": "address payable",
              "name": "driverAddr",
              "type": "address"
            },
            {
              "internalType": "address[]",
              "name": "rides",
              "type": "address[]"
            }
          ],
          "internalType": "struct RideManager.driverStruct",
          "name": "_driverStruct",
          "type": "tuple"
        }
      ],
      "payable": false,
      "stateMutability": "view",
      "type": "function"
    },
    {
      "constant": false,
      "inputs": [
        {
          "internalType": "address payable",
          "name": "_driverAddr",
          "type": "address"
        },
        {
          "internalType": "uint256",
          "name": "_status",
          "type": "uint256"
        }
      ],
      "name": "updateDriverStatus",
      "outputs": [],
      "payable": false,
      "stateMutability": "nonpayable",
      "type": "function"
    },
    {
      "constant": false,
      "inputs": [
        {
          "internalType": "address",
          "name": "_driverAddr",
          "type": "address"
        },
        {
          "internalType": "address",
          "name": "_rideAddr",
          "type": "address"
        }
      ],
      "name": "updateRideInformation",
      "outputs": [],
      "payable": false,
      "stateMutability": "nonpayable",
      "type": "function"
    },
    {
      "constant": false,
      "inputs": [
        {
          "internalType": "address payable",
          "name": "_riderAddr",
          "type": "address"
        },
        {
          "internalType": "string[]",
          "name": "_fromAddr",
          "type": "string[]"
        },
        {
          "internalType": "string[]",
          "name": "_toAddr",
          "type": "string[]"
        },
        {
          "internalType": "bytes32",
          "name": "_amount",
          "type": "bytes32"
        }
      ],
      "name": "requestRide",
      "outputs": [
        {
          "internalType": "address",
          "name": "",
          "type": "address"
        }
      ],
      "payable": false,
      "stateMutability": "nonpayable",
      "type": "function"
    },
    {
      "constant": true,
      "inputs": [],
      "name": "returnDriversAvailable",
      "outputs": [
        {
          "internalType": "address[]",
          "name": "",
          "type": "address[]"
        }
      ],
      "payable": false,
      "stateMutability": "view",
      "type": "function"
    },
    {
      "constant": false,
      "inputs": [
        {
          "internalType": "address payable",
          "name": "_riderAddr",
          "type": "address"
        },
        {
          "internalType": "address payable",
          "name": "_driverAddr",
          "type": "address"
        },
        {
          "internalType": "address",
          "name": "_rideAddr",
          "type": "address"
        }
      ],
      "name": "requestDriver",
      "outputs": [],
      "payable": false,
      "stateMutability": "nonpayable",
      "type": "function"
    }
  ],
  "bytecode": "0x608060405234801561001057600080fd5b506130ed806100206000396000f3fe60806040523480156200001157600080fd5b5060043610620000c35760003560e01c806353437eac116200007b57806353437eac14620001cc57806356b863bc14620001ec57806372f20719146200022a5780638813f641146200024a578063ea1d92251462000284578063f3100ed814620002ba57620000c3565b8062d1b48c14620000c857806307ffc9a114620000ea578063213d36b9146200010a578063219a7f2714620001405780632ede948e14620001765780634b1d01541462000196575b600080fd5b620000d2620002da565b604051620000e1919062001c68565b60405180910390f35b620001086004803603620001029190810190620015b9565b6200036a565b005b62000128600480360362000122919081019062001499565b620007a9565b60405162000137919062001ba3565b60405180910390f35b6200015e600480360362000158919081019062001417565b620008a2565b6040516200016d919062001e06565b60405180910390f35b6200019460048036036200018e919081019062001666565b62000a7e565b005b620001b46004803603620001ae919081019062001417565b62000d0e565b604051620001c3919062001c8c565b60405180910390f35b620001ea6004803603620001e4919081019062001537565b62000de1565b005b6200020a6004803603620002049190810190620013eb565b62000e55565b604051620002219998979695949392919062001cc6565b60405180910390f35b62000248600480360362000242919081019062001443565b62000edd565b005b620002686004803603620002629190810190620013eb565b62000f1f565b6040516200027b95949392919062001d65565b60405180910390f35b620002a260048036036200029c919081019062001417565b62000f82565b604051620002b1919062001e2a565b60405180910390f35b620002d86004803603620002d2919081019062001578565b62001110565b005b606060008054806020026020016040519081016040528092919081815260200182805480156200036057602002820191906000526020600020905b8160009054906101000a900473ffffffffffffffffffffffffffffffffffffffff1673ffffffffffffffffffffffffffffffffffffffff168152602001906001019080831162000315575b5050505050905090565b803373ffffffffffffffffffffffffffffffffffffffff168173ffffffffffffffffffffffffffffffffffffffff1614620003dc576040517f08c379a0000000000000000000000000000000000000000000000000000000008152600401620003d39062001dc2565b60405180910390fd5b87600260008473ffffffffffffffffffffffffffffffffffffffff1673ffffffffffffffffffffffffffffffffffffffff1681526020019081526020016000206000018190555086600260008473ffffffffffffffffffffffffffffffffffffffff1673ffffffffffffffffffffffffffffffffffffffff1681526020019081526020016000206001018190555085600260008473ffffffffffffffffffffffffffffffffffffffff1673ffffffffffffffffffffffffffffffffffffffff1681526020019081526020016000206002018190555084600260008473ffffffffffffffffffffffffffffffffffffffff1673ffffffffffffffffffffffffffffffffffffffff1681526020019081526020016000206003018190555083600260008473ffffffffffffffffffffffffffffffffffffffff1673ffffffffffffffffffffffffffffffffffffffff168152602001908152602001600020600401819055506005600260008473ffffffffffffffffffffffffffffffffffffffff1673ffffffffffffffffffffffffffffffffffffffff16815260200190815260200160002060050181905550600060018111156200059557fe5b600260008473ffffffffffffffffffffffffffffffffffffffff1673ffffffffffffffffffffffffffffffffffffffff16815260200190815260200160002060060160016101000a81548160ff02191690836001811115620005f357fe5b02179055508260018111156200060557fe5b600260008473ffffffffffffffffffffffffffffffffffffffff1673ffffffffffffffffffffffffffffffffffffffff16815260200190815260200160002060060160006101000a81548160ff021916908360018111156200066357fe5b021790555081600260008473ffffffffffffffffffffffffffffffffffffffff1673ffffffffffffffffffffffffffffffffffffffff16815260200190815260200160002060060160026101000a81548173ffffffffffffffffffffffffffffffffffffffff021916908373ffffffffffffffffffffffffffffffffffffffff16021790555060008290806001815401808255809150509060018203906000526020600020016000909192909190916101000a81548173ffffffffffffffffffffffffffffffffffffffff021916908373ffffffffffffffffffffffffffffffffffffffff160217905550508173ffffffffffffffffffffffffffffffffffffffff167fe6f787aa1ef51ebecae17b89bb1cc8e91b8d2ff46b508e1ac5d8268b979549058960405162000797919062001ca9565b60405180910390a25050505050505050565b600080856000868686604051620007c090620011ba565b620007d095949392919062001bfd565b604051809103906000f080158015620007ed573d6000803e3d6000fd5b509050600160008773ffffffffffffffffffffffffffffffffffffffff1673ffffffffffffffffffffffffffffffffffffffff1681526020019081526020016000206004018190806001815401808255809150509060018203906000526020600020016000909192909190916101000a81548173ffffffffffffffffffffffffffffffffffffffff021916908373ffffffffffffffffffffffffffffffffffffffff1602179055505080915050949350505050565b620008ac620011c8565b600260008373ffffffffffffffffffffffffffffffffffffffff1673ffffffffffffffffffffffffffffffffffffffff168152602001908152602001600020604051806101400160405290816000820154815260200160018201548152602001600282015481526020016003820154815260200160048201548152602001600582015481526020016006820160009054906101000a900460ff1660018111156200095257fe5b60018111156200095e57fe5b81526020016006820160019054906101000a900460ff1660018111156200098157fe5b60018111156200098d57fe5b81526020016006820160029054906101000a900473ffffffffffffffffffffffffffffffffffffffff1673ffffffffffffffffffffffffffffffffffffffff1673ffffffffffffffffffffffffffffffffffffffff1681526020016007820180548060200260200160405190810160405280929190818152602001828054801562000a6e57602002820191906000526020600020905b8160009054906101000a900473ffffffffffffffffffffffffffffffffffffffff1673ffffffffffffffffffffffffffffffffffffffff168152602001906001019080831162000a23575b5050505050815250509050919050565b803373ffffffffffffffffffffffffffffffffffffffff168173ffffffffffffffffffffffffffffffffffffffff161462000af0576040517f08c379a000000000000000000000000000000000000000000000000000000000815260040162000ae79062001de4565b60405180910390fd5b85600160008473ffffffffffffffffffffffffffffffffffffffff1673ffffffffffffffffffffffffffffffffffffffff1681526020019081526020016000206000018190555084600160008473ffffffffffffffffffffffffffffffffffffffff1673ffffffffffffffffffffffffffffffffffffffff1681526020019081526020016000206001018190555083600160008473ffffffffffffffffffffffffffffffffffffffff1673ffffffffffffffffffffffffffffffffffffffff1681526020019081526020016000206002018190555082600181111562000bd257fe5b600160008473ffffffffffffffffffffffffffffffffffffffff1673ffffffffffffffffffffffffffffffffffffffff16815260200190815260200160002060030160006101000a81548160ff0219169083600181111562000c3057fe5b021790555081600160008473ffffffffffffffffffffffffffffffffffffffff1673ffffffffffffffffffffffffffffffffffffffff16815260200190815260200160002060030160016101000a81548173ffffffffffffffffffffffffffffffffffffffff021916908373ffffffffffffffffffffffffffffffffffffffff1602179055508173ffffffffffffffffffffffffffffffffffffffff167f116f04dd86285f4d2f708f1984c5fc0bca25d762fa06fd9defe4c22f6f4aa36b8760405162000cfe919062001ca9565b60405180910390a2505050505050565b600080600160008473ffffffffffffffffffffffffffffffffffffffff1673ffffffffffffffffffffffffffffffffffffffff168152602001908152602001600020600401805490509050600160008473ffffffffffffffffffffffffffffffffffffffff1673ffffffffffffffffffffffffffffffffffffffff168152602001908152602001600020600401600182038154811062000daa57fe5b9060005260206000200160006101000a81549073ffffffffffffffffffffffffffffffffffffffff02191690556001915050919050565b80600181111562000dee57fe5b600260008473ffffffffffffffffffffffffffffffffffffffff1673ffffffffffffffffffffffffffffffffffffffff16815260200190815260200160002060060160016101000a81548160ff0219169083600181111562000e4c57fe5b02179055505050565b60026020528060005260406000206000915090508060000154908060010154908060020154908060030154908060040154908060050154908060060160009054906101000a900460ff16908060060160019054906101000a900460ff16908060060160029054906101000a900473ffffffffffffffffffffffffffffffffffffffff16905089565b7f0bd3effa8c6dfdb23eaf76019fccdd9aa8a4ad537034a8b59ffda48c4ccc5e9d83838360405162000f129392919062001bc0565b60405180910390a1505050565b60016020528060005260406000206000915090508060000154908060010154908060020154908060030160009054906101000a900460ff16908060030160019054906101000a900473ffffffffffffffffffffffffffffffffffffffff16905085565b62000f8c62001255565b600160008373ffffffffffffffffffffffffffffffffffffffff1673ffffffffffffffffffffffffffffffffffffffff1681526020019081526020016000206040518060c00160405290816000820154815260200160018201548152602001600282015481526020016003820160009054906101000a900460ff1660018111156200101357fe5b60018111156200101f57fe5b81526020016003820160019054906101000a900473ffffffffffffffffffffffffffffffffffffffff1673ffffffffffffffffffffffffffffffffffffffff1673ffffffffffffffffffffffffffffffffffffffff168152602001600482018054806020026020016040519081016040528092919081815260200182805480156200110057602002820191906000526020600020905b8160009054906101000a900473ffffffffffffffffffffffffffffffffffffffff1673ffffffffffffffffffffffffffffffffffffffff1681526020019060010190808311620010b5575b5050505050815250509050919050565b600160008373ffffffffffffffffffffffffffffffffffffffff1673ffffffffffffffffffffffffffffffffffffffff1681526020019081526020016000206004018190806001815401808255809150509060018203906000526020600020016000909192909190916101000a81548173ffffffffffffffffffffffffffffffffffffffff021916908373ffffffffffffffffffffffffffffffffffffffff160217905550505050565b610f30806200217b83390190565b604051806101400160405280600080191681526020016000801916815260200160008019168152602001600080191681526020016000815260200160008152602001600060018111156200121857fe5b8152602001600060018111156200122b57fe5b8152602001600073ffffffffffffffffffffffffffffffffffffffff168152602001606081525090565b6040518060c00160405280600080191681526020016000801916815260200160008019168152602001600060018111156200128c57fe5b8152602001600073ffffffffffffffffffffffffffffffffffffffff168152602001606081525090565b600081359050620012c78162002112565b92915050565b600081359050620012de816200212c565b92915050565b600082601f830112620012f657600080fd5b81356200130d620013078262001e7c565b62001e4e565b9150818183526020840193506020810190508360005b838110156200135757813586016200133c888262001378565b84526020840193506020830192505060018101905062001323565b5050505092915050565b600081359050620013728162002146565b92915050565b600082601f8301126200138a57600080fd5b8135620013a16200139b8262001ea5565b62001e4e565b91508082526020830160208301858383011115620013be57600080fd5b620013cb838284620020a0565b50505092915050565b600081359050620013e58162002160565b92915050565b600060208284031215620013fe57600080fd5b60006200140e84828501620012b6565b91505092915050565b6000602082840312156200142a57600080fd5b60006200143a84828501620012cd565b91505092915050565b6000806000606084860312156200145957600080fd5b60006200146986828701620012cd565b93505060206200147c86828701620012cd565b92505060406200148f86828701620012b6565b9150509250925092565b60008060008060808587031215620014b057600080fd5b6000620014c087828801620012cd565b945050602085013567ffffffffffffffff811115620014de57600080fd5b620014ec87828801620012e4565b935050604085013567ffffffffffffffff8111156200150a57600080fd5b6200151887828801620012e4565b92505060606200152b8782880162001361565b91505092959194509250565b600080604083850312156200154b57600080fd5b60006200155b85828601620012cd565b92505060206200156e85828601620013d4565b9150509250929050565b600080604083850312156200158c57600080fd5b60006200159c85828601620012b6565b9250506020620015af85828601620012b6565b9150509250929050565b600080600080600080600060e0888a031215620015d557600080fd5b6000620015e58a828b0162001361565b9750506020620015f88a828b0162001361565b96505060406200160b8a828b0162001361565b95505060606200161e8a828b0162001361565b9450506080620016318a828b01620013d4565b93505060a0620016448a828b01620013d4565b92505060c0620016578a828b01620012cd565b91505092959891949750929550565b600080600080600060a086880312156200167f57600080fd5b60006200168f8882890162001361565b9550506020620016a28882890162001361565b9450506040620016b58882890162001361565b9350506060620016c888828901620013d4565b9250506080620016db88828901620012cd565b9150509295509295909350565b6000620016f683836200174b565b60208301905092915050565b600062001710838362001939565b905092915050565b62001723816200203c565b82525050565b620017348162001fbe565b82525050565b620017458162001fbe565b82525050565b620017568162001faa565b82525050565b620017678162001faa565b82525050565b60006200177a8262001f0d565b62001786818562001f66565b9350620017938362001ee2565b8060005b83811015620017ca578151620017ae8882620016e8565b9750620017bb8362001f3b565b92505060018101905062001797565b5085935050505092915050565b6000620017e48262001f02565b620017f0818562001f55565b9350620017fd8362001ed2565b8060005b8381101562001834578151620018188882620016e8565b9750620018258362001f2e565b92505060018101905062001801565b5085935050505092915050565b60006200184e8262001f18565b6200185a818562001f77565b9350836020820285016200186e8562001ef2565b8060005b85811015620018b057848403895281516200188e858262001702565b94506200189b8362001f48565b925060208a0199505060018101905062001872565b50829750879550505050505092915050565b620018cd8162001fd2565b82525050565b620018de8162001fde565b82525050565b620018ef8162001fde565b82525050565b620019008162002050565b82525050565b620019118162002050565b82525050565b620019228162002064565b82525050565b620019338162002064565b82525050565b6000620019468262001f23565b62001952818562001f88565b935062001964818560208601620020af565b6200196f81620020e5565b840191505092915050565b60006200198960168362001f99565b91507f43616e6e6f7420726567697374657220647269766572000000000000000000006000830152602082019050919050565b6000620019cb60158362001f99565b91507f43616e6e6f7420726567697374657220726964657200000000000000000000006000830152602082019050919050565b60006101408301600083015162001a196000860182620018d3565b50602083015162001a2e6020860182620018d3565b50604083015162001a436040860182620018d3565b50606083015162001a586060860182620018d3565b50608083015162001a6d608086018262001b81565b5060a083015162001a8260a086018262001b81565b5060c083015162001a9760c086018262001917565b5060e083015162001aac60e0860182620018f5565b5061010083015162001ac361010086018262001729565b5061012083015184820361012086015262001adf8282620017d7565b9150508091505092915050565b600060c08301600083015162001b066000860182620018d3565b50602083015162001b1b6020860182620018d3565b50604083015162001b306040860182620018d3565b50606083015162001b45606086018262001917565b50608083015162001b5a608086018262001729565b5060a083015184820360a086015262001b748282620017d7565b9150508091505092915050565b62001b8c8162002032565b82525050565b62001b9d8162002032565b82525050565b600060208201905062001bba60008301846200175c565b92915050565b600060608201905062001bd760008301866200173a565b62001be660208301856200173a565b62001bf560408301846200175c565b949350505050565b600060a08201905062001c14600083018862001718565b62001c23602083018762001718565b818103604083015262001c37818662001841565b9050818103606083015262001c4d818562001841565b905062001c5e6080830184620018e4565b9695505050505050565b6000602082019050818103600083015262001c8481846200176d565b905092915050565b600060208201905062001ca36000830184620018c2565b92915050565b600060208201905062001cc06000830184620018e4565b92915050565b60006101208201905062001cde600083018c620018e4565b62001ced602083018b620018e4565b62001cfc604083018a620018e4565b62001d0b6060830189620018e4565b62001d1a608083018862001b92565b62001d2960a083018762001b92565b62001d3860c083018662001928565b62001d4760e083018562001906565b62001d576101008301846200173a565b9a9950505050505050505050565b600060a08201905062001d7c6000830188620018e4565b62001d8b6020830187620018e4565b62001d9a6040830186620018e4565b62001da9606083018562001928565b62001db860808301846200173a565b9695505050505050565b6000602082019050818103600083015262001ddd816200197a565b9050919050565b6000602082019050818103600083015262001dff81620019bc565b9050919050565b6000602082019050818103600083015262001e228184620019fe565b905092915050565b6000602082019050818103600083015262001e46818462001aec565b905092915050565b6000604051905081810181811067ffffffffffffffff8211171562001e7257600080fd5b8060405250919050565b600067ffffffffffffffff82111562001e9457600080fd5b602082029050602081019050919050565b600067ffffffffffffffff82111562001ebd57600080fd5b601f19601f8301169050602081019050919050565b6000819050602082019050919050565b6000819050602082019050919050565b6000819050602082019050919050565b600081519050919050565b600081519050919050565b600081519050919050565b600081519050919050565b6000602082019050919050565b6000602082019050919050565b6000602082019050919050565b600082825260208201905092915050565b600082825260208201905092915050565b600082825260208201905092915050565b600082825260208201905092915050565b600082825260208201905092915050565b600062001fb78262002012565b9050919050565b600062001fcb8262002012565b9050919050565b60008115159050919050565b6000819050919050565b600081905062001ff882620020f6565b919050565b60008190506200200d8262002104565b919050565b600073ffffffffffffffffffffffffffffffffffffffff82169050919050565b6000819050919050565b6000620020498262002078565b9050919050565b60006200205d8262001fe8565b9050919050565b6000620020718262001ffd565b9050919050565b600062002085826200208c565b9050919050565b6000620020998262002012565b9050919050565b82818337600083830152505050565b60005b83811015620020cf578082015181840152602081019050620020b2565b83811115620020df576000848401525b50505050565b6000601f19601f8301169050919050565b600281106200210157fe5b50565b600281106200210f57fe5b50565b6200211d8162001faa565b81146200212957600080fd5b50565b620021378162001fbe565b81146200214357600080fd5b50565b620021518162001fde565b81146200215d57600080fd5b50565b6200216b8162002032565b81146200217757600080fd5b5056fe60806040523480156200001157600080fd5b5060405162000f3038038062000f308339818101604052620000379190810190620003e7565b846000806101000a81548173ffffffffffffffffffffffffffffffffffffffff021916908373ffffffffffffffffffffffffffffffffffffffff16021790555083600160006101000a81548173ffffffffffffffffffffffffffffffffffffffff021916908373ffffffffffffffffffffffffffffffffffffffff1602179055508260029080519060200190620000d09291906200014d565b508160039080519060200190620000e99291906200014d565b50806004819055506000600560006101000a81548160ff0219169083151502179055506000600560016101000a81548160ff0219169083151502179055506000600560026101000a81548160ff0219169083151502179055505050505050620005c7565b828054828255906000526020600020908101928215620001a1579160200282015b82811115620001a05782518290805190602001906200018f929190620001b4565b50916020019190600101906200016e565b5b509050620001b091906200023b565b5090565b828054600181600116156101000203166002900490600052602060002090601f016020900481019282601f10620001f757805160ff191683800117855562000228565b8280016001018555821562000228579182015b82811115620002275782518255916020019190600101906200020a565b5b5090506200023791906200026c565b5090565b6200026991905b808211156200026557600081816200025b919062000294565b5060010162000242565b5090565b90565b6200029191905b808211156200028d57600081600090555060010162000273565b5090565b90565b50805460018160011615610100020316600290046000825580601f10620002bc5750620002dd565b601f016020900490600052602060002090810190620002dc91906200026c565b5b50565b600081519050620002f18162000593565b92915050565b600082601f8301126200030957600080fd5b8151620003206200031a82620004c9565b6200049b565b9150818183526020840193506020810190508360005b838110156200036a57815186016200034f88826200038b565b84526020840193506020830192505060018101905062000336565b5050505092915050565b6000815190506200038581620005ad565b92915050565b600082601f8301126200039d57600080fd5b8151620003b4620003ae82620004f2565b6200049b565b91508082526020830160208301858383011115620003d157600080fd5b620003de8382846200055d565b50505092915050565b600080600080600060a086880312156200040057600080fd5b60006200041088828901620002e0565b95505060206200042388828901620002e0565b945050604086015167ffffffffffffffff8111156200044157600080fd5b6200044f88828901620002f7565b935050606086015167ffffffffffffffff8111156200046d57600080fd5b6200047b88828901620002f7565b92505060806200048e8882890162000374565b9150509295509295909350565b6000604051905081810181811067ffffffffffffffff82111715620004bf57600080fd5b8060405250919050565b600067ffffffffffffffff821115620004e157600080fd5b602082029050602081019050919050565b600067ffffffffffffffff8211156200050a57600080fd5b601f19601f8301169050602081019050919050565b60006200052c826200053d565b9050919050565b6000819050919050565b600073ffffffffffffffffffffffffffffffffffffffff82169050919050565b60005b838110156200057d57808201518184015260208101905062000560565b838111156200058d576000848401525b50505050565b6200059e816200051f565b8114620005aa57600080fd5b50565b620005b88162000533565b8114620005c457600080fd5b50565b61095980620005d76000396000f3fe608060405234801561001057600080fd5b50600436106100575760003560e01c806306ab2e061461005c578063114dba9c14610078578063415f3dc31461009d578063530cce55146100b957806381696320146100d5575b600080fd5b61007660048036036100719190810190610580565b6100f1565b005b610080610164565b604051610094989796959493929190610702565b60405180910390f35b6100b760048036036100b29190810190610580565b6103cc565b005b6100d360048036036100ce9190810190610557565b61043f565b005b6100ef60048036036100ea9190810190610580565b6104ba565b005b801515600560009054906101000a900460ff1615151415610147576040517f08c379a000000000000000000000000000000000000000000000000000000000815260040161013e9061078e565b60405180910390fd5b80600560006101000a81548160ff02191690831515021790555050565b6000806060806000806000806000809054906101000a900473ffffffffffffffffffffffffffffffffffffffff16600160009054906101000a900473ffffffffffffffffffffffffffffffffffffffff1660026003600454600560009054906101000a900460ff16600560019054906101000a900460ff16600560029054906101000a900460ff1685805480602002602001604051908101604052809291908181526020016000905b828210156102c9578382906000526020600020018054600181600116156101000203166002900480601f0160208091040260200160405190810160405280929190818152602001828054600181600116156101000203166002900480156102b55780601f1061028a576101008083540402835291602001916102b5565b820191906000526020600020905b81548152906001019060200180831161029857829003601f168201915b50505050508152602001906001019061020d565b50505050955084805480602002602001604051908101604052809291908181526020016000905b828210156103ac578382906000526020600020018054600181600116156101000203166002900480601f0160208091040260200160405190810160405280929190818152602001828054600181600116156101000203166002900480156103985780601f1061036d57610100808354040283529160200191610398565b820191906000526020600020905b81548152906001019060200180831161037b57829003601f168201915b5050505050815260200190600101906102f0565b505050509450975097509750975097509750975097509091929394959697565b801515600560029054906101000a900460ff1615151415610422576040517f08c379a00000000000000000000000000000000000000000000000000000000081526004016104199061078e565b60405180910390fd5b80600560026101000a81548160ff02191690831515021790555050565b80600160006101000a81548173ffffffffffffffffffffffffffffffffffffffff021916908373ffffffffffffffffffffffffffffffffffffffff1602179055507f25f8e5655c6f1f632d56c02915da6b21c7c7d2769e33e699d247fc3a64453fb3816040516104af91906106e7565b60405180910390a150565b801515600560019054906101000a900460ff1615151415610510576040517f08c379a00000000000000000000000000000000000000000000000000000000081526004016105079061078e565b60405180910390fd5b80600560016101000a81548160ff02191690831515021790555050565b60008135905061053c816108e8565b92915050565b600081359050610551816108ff565b92915050565b60006020828403121561056957600080fd5b60006105778482850161052d565b91505092915050565b60006020828403121561059257600080fd5b60006105a084828501610542565b91505092915050565b60006105b5838361066e565b905092915050565b6105c68161086e565b82525050565b6105d581610814565b82525050565b60006105e6826107be565b6105f081856107e1565b935083602082028501610602856107ae565b8060005b8581101561063e578484038952815161061f85826105a9565b945061062a836107d4565b925060208a01995050600181019050610606565b50829750879550505050505092915050565b61065981610838565b82525050565b61066881610844565b82525050565b6000610679826107c9565b61068381856107f2565b93506106938185602086016108a4565b61069c816108d7565b840191505092915050565b60006106b4601483610803565b91507f536f6d65206572726f72206f63637572726564210000000000000000000000006000830152602082019050919050565b60006020820190506106fc60008301846105bd565b92915050565b600061010082019050610718600083018b6105cc565b610725602083018a6105cc565b818103604083015261073781896105db565b9050818103606083015261074b81886105db565b905061075a608083018761065f565b61076760a0830186610650565b61077460c0830185610650565b61078160e0830184610650565b9998505050505050505050565b600060208201905081810360008301526107a7816106a7565b9050919050565b6000819050602082019050919050565b600081519050919050565b600081519050919050565b6000602082019050919050565b600082825260208201905092915050565b600082825260208201905092915050565b600082825260208201905092915050565b600061081f8261084e565b9050919050565b60006108318261084e565b9050919050565b60008115159050919050565b6000819050919050565b600073ffffffffffffffffffffffffffffffffffffffff82169050919050565b600061087982610880565b9050919050565b600061088b82610892565b9050919050565b600061089d8261084e565b9050919050565b60005b838110156108c25780820151818401526020810190506108a7565b838111156108d1576000848401525b50505050565b6000601f19601f8301169050919050565b6108f181610826565b81146108fc57600080fd5b50565b61090881610838565b811461091357600080fd5b5056fea365627a7a7231582036054bd8ae5db8a2983950e3b77ae88e503137b84cfff4ab72c0ba606f0512a76c6578706572696d656e74616cf564736f6c63430005100040a365627a7a72315820bdbd277e3f2292e1af7cd6266d261122426ac70e01e4b2012e307d3ad9eb6a486c6578706572696d656e74616cf564736f6c63430005100040",
  "source": "pragma solidity >=0.4.21 <0.7.0;\npragma experimental ABIEncoderV2;\n\nimport './Ride.sol';\n\ncontract RideManager {\n    \n    //// Inits ////\n    bytes32 constant NULL = \"\";\n    address[] driversArray;\n\n    //// Enums ////\n    enum roles {\n        rider,\n        driver\n    }\n    \n    enum currentStatus {\n        free,\n        busy\n    }\n    \n    \n    //// Structs ////\n    struct riderStruct {\n        bytes32 name;\n        bytes32 contact;\n        bytes32 email;\n        roles role;\n        address payable riderAddr;\n        address[] rides;\n    }\n    \n    \n    struct driverStruct {\n        bytes32 name;\n        bytes32 contact;\n        bytes32 email;\n        bytes32 carNo;\n        uint256 noOfSeats;\n        uint256 rating;\n        roles role;\n        currentStatus status;\n        address payable driverAddr; \n        address[] rides;\n    }\n    \n    \n    //// Mappings ////\n    mapping (address => riderStruct) public ridersMapping;\n    mapping (address => driverStruct) public driversMapping;\n\n\n    //// Events ////\n    event RiderRegister(address indexed _address, bytes32 name);\n    event DriverRegister(address indexed _address, bytes32 name);\n    event requestDriverEvent(address payable _riderAddr, address payable _driverAddr, address rideAddr);\n    \n    \n    //// Constructor ////\n    constructor() public {}\n    \n    \n    //// Modifiers ////\n    modifier onlyRider(address payable _riderAddr) {\n        require(_riderAddr == msg.sender, \"Cannot register rider\");\n        _;\n    }\n    \n    modifier onlyDriver(address payable _driverAddr) {\n        require(_driverAddr == msg.sender, \"Cannot register driver\");\n        _;\n    }\n\n    \n    //// Functions ////\n    \n    /// Riders ///\n    function registerRider(bytes32 _name, bytes32 _contact, bytes32 _email, uint _role, address payable _riderAddr) external onlyRider(_riderAddr) {\n        \n        ridersMapping[_riderAddr].name = _name;\n        ridersMapping[_riderAddr].contact = _contact;\n        ridersMapping[_riderAddr].email = _email;\n        ridersMapping[_riderAddr].role = roles(_role);\n        ridersMapping[_riderAddr].riderAddr = _riderAddr;\n        \n        emit RiderRegister(_riderAddr, _name);\n    }\n    \n    function getRiderInfo(address payable _riderAddr) external view returns(riderStruct memory _riderStruct) {\n        return ridersMapping[_riderAddr];\n    }\n    \n    function cancelRide(address payable _riderAddr) public returns(bool) {\n        uint len = ridersMapping[_riderAddr].rides.length;\n        delete ridersMapping[_riderAddr].rides[len - 1];\n        return true;\n    }\n    \n    \n    /// Drivers ///\n\n    function registerDriver(bytes32 _name, bytes32 _contact, bytes32 _email, bytes32 _carNo, uint256 _seats, uint _role, address payable _driverAddr) external onlyDriver(_driverAddr) {\n        \n        driversMapping[_driverAddr].name = _name;\n        driversMapping[_driverAddr].contact = _contact;\n        driversMapping[_driverAddr].email = _email;\n        driversMapping[_driverAddr].carNo = _carNo;\n        driversMapping[_driverAddr].noOfSeats = _seats;\n        driversMapping[_driverAddr].rating = 5;\n        driversMapping[_driverAddr].status = currentStatus(0);\n        driversMapping[_driverAddr].role = roles(_role);\n        driversMapping[_driverAddr].driverAddr = _driverAddr;\n        \n        driversArray.push(_driverAddr);\n        \n        emit DriverRegister(_driverAddr, _name);\n    }\n    \n    function getDriverInfo(address payable _driverAddr) external view returns(driverStruct memory _driverStruct) {\n        return driversMapping[_driverAddr];\n    }\n    \n    function updateDriverStatus(address payable _driverAddr, uint _status) external {\n        driversMapping[_driverAddr].status = currentStatus(_status);\n    }\n    \n    function updateRideInformation(address _driverAddr, address _rideAddr) external {\n        ridersMapping[_driverAddr].rides.push(_rideAddr);\n    }\n    \n    \n    /// Main ///\n    \n    function requestRide(address payable _riderAddr, string[] memory _fromAddr, string[] memory _toAddr, bytes32 _amount) public returns(address){\n        Ride ride = new Ride(\n            _riderAddr,\n            address(0),\n            _fromAddr,\n            _toAddr,\n            _amount\n        );\n        ridersMapping[_riderAddr].rides.push(address(ride));\n        \n        return address(ride);\n    }\n    \n    function returnDriversAvailable() external view returns(address[] memory) {\n        return driversArray;\n    }\n    \n    function requestDriver(address payable _riderAddr, address payable _driverAddr, address _rideAddr) external {\n        emit requestDriverEvent(_riderAddr, _driverAddr, _rideAddr);\n    }\n}",
  "sourcePath": "/Users/sherwyndsouza/Desktop/GitHub/KEDS-Rideshare/contracts/RideManager.sol",
  "compiler": {
    "name": "solc",
    "version": "0.5.16+commit.9c3226ce.Emscripten.clang"
  },
  "schemaVersion": "3.2.2",
  "updatedAt": "2021-02-20T05:20:26.689Z",
  "networkType": "ethereum",
  "devdoc": {
    "methods": {}
  },
  "userdoc": {
    "methods": {
      "constructor": "/ Constructor ////",
      "registerDriver(bytes32,bytes32,bytes32,bytes32,uint256,uint256,address)": {
        "notice": "Drivers ///"
      },
      "registerRider(bytes32,bytes32,bytes32,uint256,address)": {
        "notice": "/ Functions //// Riders ///"
      },
      "requestRide(address,string[],string[],bytes32)": {
        "notice": "Main ///"
      }
    }
  }
}