{
  "contractName": "Ride",
  "abi": [
    {
      "inputs": [
        {
          "internalType": "address",
          "name": "_riderAddr",
          "type": "address"
        },
        {
          "internalType": "address",
          "name": "_driverAddr",
          "type": "address"
        },
        {
          "internalType": "string[]",
          "name": "_fromAddr",
          "type": "string[]"
        },
        {
          "internalType": "string[]",
          "name": "_toAddr",
          "type": "string[]"
        },
        {
          "internalType": "bytes32",
          "name": "_amount",
          "type": "bytes32"
        }
      ],
      "payable": false,
      "stateMutability": "nonpayable",
      "type": "constructor"
    },
    {
      "anonymous": false,
      "inputs": [
        {
          "indexed": false,
          "internalType": "address",
          "name": "_driverAddr",
          "type": "address"
        }
      ],
      "name": "UpdateConfirmationEvent",
      "type": "event"
    },
    {
      "constant": true,
      "inputs": [],
      "name": "getRideInfo",
      "outputs": [
        {
          "internalType": "address",
          "name": "",
          "type": "address"
        },
        {
          "internalType": "address",
          "name": "",
          "type": "address"
        },
        {
          "internalType": "string[]",
          "name": "",
          "type": "string[]"
        },
        {
          "internalType": "string[]",
          "name": "",
          "type": "string[]"
        },
        {
          "internalType": "bytes32",
          "name": "",
          "type": "bytes32"
        },
        {
          "internalType": "bool",
          "name": "",
          "type": "bool"
        },
        {
          "internalType": "bool",
          "name": "",
          "type": "bool"
        },
        {
          "internalType": "bool",
          "name": "",
          "type": "bool"
        }
      ],
      "payable": false,
      "stateMutability": "view",
      "type": "function"
    },
    {
      "constant": false,
      "inputs": [
        {
          "internalType": "address payable",
          "name": "_driverAddr",
          "type": "address"
        }
      ],
      "name": "updateDriverAddress",
      "outputs": [],
      "payable": false,
      "stateMutability": "nonpayable",
      "type": "function"
    },
    {
      "constant": false,
      "inputs": [
        {
          "internalType": "bool",
          "name": "_status",
          "type": "bool"
        }
      ],
      "name": "updateRiderConfirmation",
      "outputs": [],
      "payable": false,
      "stateMutability": "nonpayable",
      "type": "function"
    },
    {
      "constant": false,
      "inputs": [
        {
          "internalType": "bool",
          "name": "_status",
          "type": "bool"
        }
      ],
      "name": "updateDriverConfirmation",
      "outputs": [],
      "payable": false,
      "stateMutability": "nonpayable",
      "type": "function"
    },
    {
      "constant": false,
      "inputs": [
        {
          "internalType": "bool",
          "name": "_complete",
          "type": "bool"
        }
      ],
      "name": "updateRideComplete",
      "outputs": [],
      "payable": false,
      "stateMutability": "nonpayable",
      "type": "function"
    }
  ],
  "bytecode": "0x60806040523480156200001157600080fd5b5060405162000f3038038062000f308339818101604052620000379190810190620003e7565b846000806101000a81548173ffffffffffffffffffffffffffffffffffffffff021916908373ffffffffffffffffffffffffffffffffffffffff16021790555083600160006101000a81548173ffffffffffffffffffffffffffffffffffffffff021916908373ffffffffffffffffffffffffffffffffffffffff1602179055508260029080519060200190620000d09291906200014d565b508160039080519060200190620000e99291906200014d565b50806004819055506000600560006101000a81548160ff0219169083151502179055506000600560016101000a81548160ff0219169083151502179055506000600560026101000a81548160ff0219169083151502179055505050505050620005c7565b828054828255906000526020600020908101928215620001a1579160200282015b82811115620001a05782518290805190602001906200018f929190620001b4565b50916020019190600101906200016e565b5b509050620001b091906200023b565b5090565b828054600181600116156101000203166002900490600052602060002090601f016020900481019282601f10620001f757805160ff191683800117855562000228565b8280016001018555821562000228579182015b82811115620002275782518255916020019190600101906200020a565b5b5090506200023791906200026c565b5090565b6200026991905b808211156200026557600081816200025b919062000294565b5060010162000242565b5090565b90565b6200029191905b808211156200028d57600081600090555060010162000273565b5090565b90565b50805460018160011615610100020316600290046000825580601f10620002bc5750620002dd565b601f016020900490600052602060002090810190620002dc91906200026c565b5b50565b600081519050620002f18162000593565b92915050565b600082601f8301126200030957600080fd5b8151620003206200031a82620004c9565b6200049b565b9150818183526020840193506020810190508360005b838110156200036a57815186016200034f88826200038b565b84526020840193506020830192505060018101905062000336565b5050505092915050565b6000815190506200038581620005ad565b92915050565b600082601f8301126200039d57600080fd5b8151620003b4620003ae82620004f2565b6200049b565b91508082526020830160208301858383011115620003d157600080fd5b620003de8382846200055d565b50505092915050565b600080600080600060a086880312156200040057600080fd5b60006200041088828901620002e0565b95505060206200042388828901620002e0565b945050604086015167ffffffffffffffff8111156200044157600080fd5b6200044f88828901620002f7565b935050606086015167ffffffffffffffff8111156200046d57600080fd5b6200047b88828901620002f7565b92505060806200048e8882890162000374565b9150509295509295909350565b6000604051905081810181811067ffffffffffffffff82111715620004bf57600080fd5b8060405250919050565b600067ffffffffffffffff821115620004e157600080fd5b602082029050602081019050919050565b600067ffffffffffffffff8211156200050a57600080fd5b601f19601f8301169050602081019050919050565b60006200052c826200053d565b9050919050565b6000819050919050565b600073ffffffffffffffffffffffffffffffffffffffff82169050919050565b60005b838110156200057d57808201518184015260208101905062000560565b838111156200058d576000848401525b50505050565b6200059e816200051f565b8114620005aa57600080fd5b50565b620005b88162000533565b8114620005c457600080fd5b50565b61095980620005d76000396000f3fe608060405234801561001057600080fd5b50600436106100575760003560e01c806306ab2e061461005c578063114dba9c14610078578063415f3dc31461009d578063530cce55146100b957806381696320146100d5575b600080fd5b61007660048036036100719190810190610580565b6100f1565b005b610080610164565b604051610094989796959493929190610702565b60405180910390f35b6100b760048036036100b29190810190610580565b6103cc565b005b6100d360048036036100ce9190810190610557565b61043f565b005b6100ef60048036036100ea9190810190610580565b6104ba565b005b801515600560009054906101000a900460ff1615151415610147576040517f08c379a000000000000000000000000000000000000000000000000000000000815260040161013e9061078e565b60405180910390fd5b80600560006101000a81548160ff02191690831515021790555050565b6000806060806000806000806000809054906101000a900473ffffffffffffffffffffffffffffffffffffffff16600160009054906101000a900473ffffffffffffffffffffffffffffffffffffffff1660026003600454600560009054906101000a900460ff16600560019054906101000a900460ff16600560029054906101000a900460ff1685805480602002602001604051908101604052809291908181526020016000905b828210156102c9578382906000526020600020018054600181600116156101000203166002900480601f0160208091040260200160405190810160405280929190818152602001828054600181600116156101000203166002900480156102b55780601f1061028a576101008083540402835291602001916102b5565b820191906000526020600020905b81548152906001019060200180831161029857829003601f168201915b50505050508152602001906001019061020d565b50505050955084805480602002602001604051908101604052809291908181526020016000905b828210156103ac578382906000526020600020018054600181600116156101000203166002900480601f0160208091040260200160405190810160405280929190818152602001828054600181600116156101000203166002900480156103985780601f1061036d57610100808354040283529160200191610398565b820191906000526020600020905b81548152906001019060200180831161037b57829003601f168201915b5050505050815260200190600101906102f0565b505050509450975097509750975097509750975097509091929394959697565b801515600560029054906101000a900460ff1615151415610422576040517f08c379a00000000000000000000000000000000000000000000000000000000081526004016104199061078e565b60405180910390fd5b80600560026101000a81548160ff02191690831515021790555050565b80600160006101000a81548173ffffffffffffffffffffffffffffffffffffffff021916908373ffffffffffffffffffffffffffffffffffffffff1602179055507f25f8e5655c6f1f632d56c02915da6b21c7c7d2769e33e699d247fc3a64453fb3816040516104af91906106e7565b60405180910390a150565b801515600560019054906101000a900460ff1615151415610510576040517f08c379a00000000000000000000000000000000000000000000000000000000081526004016105079061078e565b60405180910390fd5b80600560016101000a81548160ff02191690831515021790555050565b60008135905061053c816108e8565b92915050565b600081359050610551816108ff565b92915050565b60006020828403121561056957600080fd5b60006105778482850161052d565b91505092915050565b60006020828403121561059257600080fd5b60006105a084828501610542565b91505092915050565b60006105b5838361066e565b905092915050565b6105c68161086e565b82525050565b6105d581610814565b82525050565b60006105e6826107be565b6105f081856107e1565b935083602082028501610602856107ae565b8060005b8581101561063e578484038952815161061f85826105a9565b945061062a836107d4565b925060208a01995050600181019050610606565b50829750879550505050505092915050565b61065981610838565b82525050565b61066881610844565b82525050565b6000610679826107c9565b61068381856107f2565b93506106938185602086016108a4565b61069c816108d7565b840191505092915050565b60006106b4601483610803565b91507f536f6d65206572726f72206f63637572726564210000000000000000000000006000830152602082019050919050565b60006020820190506106fc60008301846105bd565b92915050565b600061010082019050610718600083018b6105cc565b610725602083018a6105cc565b818103604083015261073781896105db565b9050818103606083015261074b81886105db565b905061075a608083018761065f565b61076760a0830186610650565b61077460c0830185610650565b61078160e0830184610650565b9998505050505050505050565b600060208201905081810360008301526107a7816106a7565b9050919050565b6000819050602082019050919050565b600081519050919050565b600081519050919050565b6000602082019050919050565b600082825260208201905092915050565b600082825260208201905092915050565b600082825260208201905092915050565b600061081f8261084e565b9050919050565b60006108318261084e565b9050919050565b60008115159050919050565b6000819050919050565b600073ffffffffffffffffffffffffffffffffffffffff82169050919050565b600061087982610880565b9050919050565b600061088b82610892565b9050919050565b600061089d8261084e565b9050919050565b60005b838110156108c25780820151818401526020810190506108a7565b838111156108d1576000848401525b50505050565b6000601f19601f8301169050919050565b6108f181610826565b81146108fc57600080fd5b50565b61090881610838565b811461091357600080fd5b5056fea365627a7a7231582036054bd8ae5db8a2983950e3b77ae88e503137b84cfff4ab72c0ba606f0512a76c6578706572696d656e74616cf564736f6c63430005100040",
  "source": "pragma solidity >=0.4.21 <0.7.0;\npragma experimental ABIEncoderV2;\n\ncontract Ride {\n\n    address riderAddr;\n    address driverAddr;\n    string[] fromAddr;\n    string[] toAddr;\n    bytes32 amount;\n    bool complete;\n    bool confirmedByRider;\n    bool confirmedByDriver;\n    \n    event UpdateConfirmationEvent(address _driverAddr);\n\n    \n    constructor(address _riderAddr, address _driverAddr, string[] memory _fromAddr, string[] memory _toAddr, bytes32 _amount) public {\n        riderAddr = _riderAddr;\n        driverAddr = _driverAddr;\n        fromAddr = _fromAddr;\n        toAddr = _toAddr;\n        amount = _amount;\n        complete = false;\n        confirmedByRider = false;\n        confirmedByDriver = false;\n    }\n    \n    function getRideInfo() view public returns(address, address, string[] memory, string[] memory, bytes32, bool, bool, bool) {\n        return (riderAddr, driverAddr, fromAddr, toAddr, amount, complete, confirmedByRider, confirmedByDriver);\n    }\n    \n    function updateDriverAddress(address payable _driverAddr) public {\n        driverAddr = _driverAddr;\n        emit UpdateConfirmationEvent(_driverAddr);\n    }\n    \n    function updateRiderConfirmation(bool _status) public {\n        require(confirmedByRider != _status, 'Some error occurred!');\n        confirmedByRider = _status;\n    }\n    \n    function updateDriverConfirmation(bool _status) public {\n        require(confirmedByDriver != _status, 'Some error occurred!');\n        confirmedByDriver = _status;\n    }\n    \n    function updateRideComplete(bool _complete) public {\n        require(complete != _complete, 'Some error occurred!');\n        complete = _complete;\n    }\n}",
  "sourcePath": "/Users/sherwyndsouza/Desktop/GitHub/KEDS-Rideshare/contracts/Ride.sol",
  "compiler": {
    "name": "solc",
    "version": "0.5.16+commit.9c3226ce.Emscripten.clang"
  },
  "schemaVersion": "3.2.2",
  "updatedAt": "2021-02-20T05:19:31.429Z",
  "devdoc": {
    "methods": {}
  },
  "userdoc": {
    "methods": {}
  }
}