{
  "contractName": "RideManager",
  "abi": [
    {
      "inputs": [],
      "payable": false,
      "stateMutability": "nonpayable",
      "type": "constructor"
    },
    {
      "anonymous": false,
      "inputs": [
        {
          "indexed": true,
          "internalType": "address",
          "name": "_address",
          "type": "address"
        },
        {
          "indexed": false,
          "internalType": "bytes32",
          "name": "name",
          "type": "bytes32"
        }
      ],
      "name": "DriverRegister",
      "type": "event"
    },
    {
      "anonymous": false,
      "inputs": [
        {
          "indexed": true,
          "internalType": "address",
          "name": "_address",
          "type": "address"
        },
        {
          "indexed": false,
          "internalType": "bytes32",
          "name": "name",
          "type": "bytes32"
        }
      ],
      "name": "RiderRegister",
      "type": "event"
    },
    {
      "anonymous": false,
      "inputs": [
        {
          "indexed": false,
          "internalType": "address payable",
          "name": "_riderAddr",
          "type": "address"
        },
        {
          "indexed": true,
          "internalType": "address payable",
          "name": "_driverAddr",
          "type": "address"
        },
        {
          "indexed": false,
          "internalType": "address",
          "name": "rideAddr",
          "type": "address"
        }
      ],
      "name": "requestDriverEvent",
      "type": "event"
    },
    {
      "constant": true,
      "inputs": [
        {
          "internalType": "address",
          "name": "",
          "type": "address"
        }
      ],
      "name": "driversMapping",
      "outputs": [
        {
          "internalType": "bytes32",
          "name": "name",
          "type": "bytes32"
        },
        {
          "internalType": "bytes32",
          "name": "contact",
          "type": "bytes32"
        },
        {
          "internalType": "bytes32",
          "name": "email",
          "type": "bytes32"
        },
        {
          "internalType": "bytes32",
          "name": "carNo",
          "type": "bytes32"
        },
        {
          "internalType": "uint256",
          "name": "noOfSeats",
          "type": "uint256"
        },
        {
          "internalType": "uint256",
          "name": "rating",
          "type": "uint256"
        },
        {
          "internalType": "enum RideManager.roles",
          "name": "role",
          "type": "uint8"
        },
        {
          "internalType": "enum RideManager.currentStatus",
          "name": "status",
          "type": "uint8"
        },
        {
          "internalType": "address payable",
          "name": "driverAddr",
          "type": "address"
        }
      ],
      "payable": false,
      "stateMutability": "view",
      "type": "function"
    },
    {
      "constant": true,
      "inputs": [
        {
          "internalType": "address",
          "name": "",
          "type": "address"
        }
      ],
      "name": "ridersMapping",
      "outputs": [
        {
          "internalType": "bytes32",
          "name": "name",
          "type": "bytes32"
        },
        {
          "internalType": "bytes32",
          "name": "contact",
          "type": "bytes32"
        },
        {
          "internalType": "bytes32",
          "name": "email",
          "type": "bytes32"
        },
        {
          "internalType": "enum RideManager.roles",
          "name": "role",
          "type": "uint8"
        },
        {
          "internalType": "address payable",
          "name": "riderAddr",
          "type": "address"
        }
      ],
      "payable": false,
      "stateMutability": "view",
      "type": "function"
    },
    {
      "constant": false,
      "inputs": [
        {
          "internalType": "bytes32",
          "name": "_name",
          "type": "bytes32"
        },
        {
          "internalType": "bytes32",
          "name": "_contact",
          "type": "bytes32"
        },
        {
          "internalType": "bytes32",
          "name": "_email",
          "type": "bytes32"
        },
        {
          "internalType": "uint256",
          "name": "_role",
          "type": "uint256"
        },
        {
          "internalType": "address payable",
          "name": "_riderAddr",
          "type": "address"
        }
      ],
      "name": "registerRider",
      "outputs": [],
      "payable": false,
      "stateMutability": "nonpayable",
      "type": "function"
    },
    {
      "constant": true,
      "inputs": [
        {
          "internalType": "address payable",
          "name": "_riderAddr",
          "type": "address"
        }
      ],
      "name": "getRiderInfo",
      "outputs": [
        {
          "components": [
            {
              "internalType": "bytes32",
              "name": "name",
              "type": "bytes32"
            },
            {
              "internalType": "bytes32",
              "name": "contact",
              "type": "bytes32"
            },
            {
              "internalType": "bytes32",
              "name": "email",
              "type": "bytes32"
            },
            {
              "internalType": "enum RideManager.roles",
              "name": "role",
              "type": "uint8"
            },
            {
              "internalType": "address payable",
              "name": "riderAddr",
              "type": "address"
            },
            {
              "internalType": "address[]",
              "name": "rides",
              "type": "address[]"
            }
          ],
          "internalType": "struct RideManager.riderStruct",
          "name": "_riderStruct",
          "type": "tuple"
        }
      ],
      "payable": false,
      "stateMutability": "view",
      "type": "function"
    },
    {
      "constant": false,
      "inputs": [
        {
          "internalType": "address payable",
          "name": "_riderAddr",
          "type": "address"
        }
      ],
      "name": "cancelRide",
      "outputs": [
        {
          "internalType": "bool",
          "name": "",
          "type": "bool"
        }
      ],
      "payable": false,
      "stateMutability": "nonpayable",
      "type": "function"
    },
    {
      "constant": false,
      "inputs": [
        {
          "internalType": "bytes32",
          "name": "_name",
          "type": "bytes32"
        },
        {
          "internalType": "bytes32",
          "name": "_contact",
          "type": "bytes32"
        },
        {
          "internalType": "bytes32",
          "name": "_email",
          "type": "bytes32"
        },
        {
          "internalType": "bytes32",
          "name": "_carNo",
          "type": "bytes32"
        },
        {
          "internalType": "uint256",
          "name": "_seats",
          "type": "uint256"
        },
        {
          "internalType": "uint256",
          "name": "_role",
          "type": "uint256"
        },
        {
          "internalType": "address payable",
          "name": "_driverAddr",
          "type": "address"
        }
      ],
      "name": "registerDriver",
      "outputs": [],
      "payable": false,
      "stateMutability": "nonpayable",
      "type": "function"
    },
    {
      "constant": true,
      "inputs": [
        {
          "internalType": "address payable",
          "name": "_driverAddr",
          "type": "address"
        }
      ],
      "name": "getDriverInfo",
      "outputs": [
        {
          "components": [
            {
              "internalType": "bytes32",
              "name": "name",
              "type": "bytes32"
            },
            {
              "internalType": "bytes32",
              "name": "contact",
              "type": "bytes32"
            },
            {
              "internalType": "bytes32",
              "name": "email",
              "type": "bytes32"
            },
            {
              "internalType": "bytes32",
              "name": "carNo",
              "type": "bytes32"
            },
            {
              "internalType": "uint256",
              "name": "noOfSeats",
              "type": "uint256"
            },
            {
              "internalType": "uint256",
              "name": "rating",
              "type": "uint256"
            },
            {
              "internalType": "enum RideManager.roles",
              "name": "role",
              "type": "uint8"
            },
            {
              "internalType": "enum RideManager.currentStatus",
              "name": "status",
              "type": "uint8"
            },
            {
              "internalType": "address payable",
              "name": "driverAddr",
              "type": "address"
            },
            {
              "internalType": "address[]",
              "name": "rides",
              "type": "address[]"
            }
          ],
          "internalType": "struct RideManager.driverStruct",
          "name": "_driverStruct",
          "type": "tuple"
        }
      ],
      "payable": false,
      "stateMutability": "view",
      "type": "function"
    },
    {
      "constant": false,
      "inputs": [
        {
          "internalType": "address payable",
          "name": "_driverAddr",
          "type": "address"
        },
        {
          "internalType": "uint256",
          "name": "_status",
          "type": "uint256"
        }
      ],
      "name": "updateDriverStatus",
      "outputs": [],
      "payable": false,
      "stateMutability": "nonpayable",
      "type": "function"
    },
    {
      "constant": false,
      "inputs": [
        {
          "internalType": "address",
          "name": "_driverAddr",
          "type": "address"
        },
        {
          "internalType": "address",
          "name": "_rideAddr",
          "type": "address"
        }
      ],
      "name": "updateRideInformation",
      "outputs": [],
      "payable": false,
      "stateMutability": "nonpayable",
      "type": "function"
    },
    {
      "constant": false,
      "inputs": [
        {
          "internalType": "address payable",
          "name": "_riderAddr",
          "type": "address"
        },
        {
          "internalType": "address payable",
          "name": "_driverAddr",
          "type": "address"
        },
        {
          "internalType": "string[]",
          "name": "_fromAddr",
          "type": "string[]"
        },
        {
          "internalType": "string[]",
          "name": "_toAddr",
          "type": "string[]"
        },
        {
          "internalType": "bytes32",
          "name": "_amount",
          "type": "bytes32"
        }
      ],
      "name": "requestRide",
      "outputs": [],
      "payable": false,
      "stateMutability": "nonpayable",
      "type": "function"
    },
    {
      "constant": true,
      "inputs": [],
      "name": "returnDriversAvailable",
      "outputs": [
        {
          "internalType": "address[]",
          "name": "",
          "type": "address[]"
        }
      ],
      "payable": false,
      "stateMutability": "view",
      "type": "function"
    },
    {
      "constant": false,
      "inputs": [
        {
          "internalType": "address payable",
          "name": "_riderAddr",
          "type": "address"
        },
        {
          "internalType": "address payable",
          "name": "_driverAddr",
          "type": "address"
        },
        {
          "internalType": "address",
          "name": "_rideAddr",
          "type": "address"
        }
      ],
      "name": "requestDriver",
      "outputs": [],
      "payable": false,
      "stateMutability": "nonpayable",
      "type": "function"
    }
  ],
  "bytecode": "0x608060405234801561001057600080fd5b506130be806100206000396000f3fe60806040523480156200001157600080fd5b5060043610620000c35760003560e01c806353437eac116200007b57806353437eac14620001b657806356b863bc14620001d657806372f2071914620002145780638813f6411462000234578063ea1d9225146200026e578063f3100ed814620002a457620000c3565b8062d1b48c14620000c857806307ffc9a114620000ea578063219a7f27146200010a5780632ede948e14620001405780633e171b3d14620001605780634b1d01541462000180575b600080fd5b620000d2620002c4565b604051620000e1919062001c8b565b60405180910390f35b6200010860048036036200010291908101906200161a565b62000354565b005b62000128600480360362000122919081019062001462565b62000793565b60405162000137919062001e29565b60405180910390f35b6200015e6004803603620001589190810190620016c7565b6200096f565b005b6200017e6004803603620001789190810190620014e4565b62000bff565b005b6200019e600480360362000198919081019062001462565b62000d44565b604051620001ad919062001caf565b60405180910390f35b620001d46004803603620001ce919081019062001598565b62000e17565b005b620001f46004803603620001ee919081019062001436565b62000e8b565b6040516200020b9998979695949392919062001ce9565b60405180910390f35b6200023260048036036200022c91908101906200148e565b62000f13565b005b6200025260048036036200024c919081019062001436565b62000f6a565b6040516200026595949392919062001d88565b60405180910390f35b6200028c600480360362000286919081019062001462565b62000fcd565b6040516200029b919062001e4d565b60405180910390f35b620002c26004803603620002bc9190810190620015d9565b6200115b565b005b606060008054806020026020016040519081016040528092919081815260200182805480156200034a57602002820191906000526020600020905b8160009054906101000a900473ffffffffffffffffffffffffffffffffffffffff1673ffffffffffffffffffffffffffffffffffffffff1681526020019060010190808311620002ff575b5050505050905090565b803373ffffffffffffffffffffffffffffffffffffffff168173ffffffffffffffffffffffffffffffffffffffff1614620003c6576040517f08c379a0000000000000000000000000000000000000000000000000000000008152600401620003bd9062001de5565b60405180910390fd5b87600260008473ffffffffffffffffffffffffffffffffffffffff1673ffffffffffffffffffffffffffffffffffffffff1681526020019081526020016000206000018190555086600260008473ffffffffffffffffffffffffffffffffffffffff1673ffffffffffffffffffffffffffffffffffffffff1681526020019081526020016000206001018190555085600260008473ffffffffffffffffffffffffffffffffffffffff1673ffffffffffffffffffffffffffffffffffffffff1681526020019081526020016000206002018190555084600260008473ffffffffffffffffffffffffffffffffffffffff1673ffffffffffffffffffffffffffffffffffffffff1681526020019081526020016000206003018190555083600260008473ffffffffffffffffffffffffffffffffffffffff1673ffffffffffffffffffffffffffffffffffffffff168152602001908152602001600020600401819055506005600260008473ffffffffffffffffffffffffffffffffffffffff1673ffffffffffffffffffffffffffffffffffffffff16815260200190815260200160002060050181905550600060018111156200057f57fe5b600260008473ffffffffffffffffffffffffffffffffffffffff1673ffffffffffffffffffffffffffffffffffffffff16815260200190815260200160002060060160016101000a81548160ff02191690836001811115620005dd57fe5b0217905550826001811115620005ef57fe5b600260008473ffffffffffffffffffffffffffffffffffffffff1673ffffffffffffffffffffffffffffffffffffffff16815260200190815260200160002060060160006101000a81548160ff021916908360018111156200064d57fe5b021790555081600260008473ffffffffffffffffffffffffffffffffffffffff1673ffffffffffffffffffffffffffffffffffffffff16815260200190815260200160002060060160026101000a81548173ffffffffffffffffffffffffffffffffffffffff021916908373ffffffffffffffffffffffffffffffffffffffff16021790555060008290806001815401808255809150509060018203906000526020600020016000909192909190916101000a81548173ffffffffffffffffffffffffffffffffffffffff021916908373ffffffffffffffffffffffffffffffffffffffff160217905550508173ffffffffffffffffffffffffffffffffffffffff167fe6f787aa1ef51ebecae17b89bb1cc8e91b8d2ff46b508e1ac5d8268b979549058960405162000781919062001ccc565b60405180910390a25050505050505050565b6200079d62001205565b600260008373ffffffffffffffffffffffffffffffffffffffff1673ffffffffffffffffffffffffffffffffffffffff168152602001908152602001600020604051806101400160405290816000820154815260200160018201548152602001600282015481526020016003820154815260200160048201548152602001600582015481526020016006820160009054906101000a900460ff1660018111156200084357fe5b60018111156200084f57fe5b81526020016006820160019054906101000a900460ff1660018111156200087257fe5b60018111156200087e57fe5b81526020016006820160029054906101000a900473ffffffffffffffffffffffffffffffffffffffff1673ffffffffffffffffffffffffffffffffffffffff1673ffffffffffffffffffffffffffffffffffffffff168152602001600782018054806020026020016040519081016040528092919081815260200182805480156200095f57602002820191906000526020600020905b8160009054906101000a900473ffffffffffffffffffffffffffffffffffffffff1673ffffffffffffffffffffffffffffffffffffffff168152602001906001019080831162000914575b5050505050815250509050919050565b803373ffffffffffffffffffffffffffffffffffffffff168173ffffffffffffffffffffffffffffffffffffffff1614620009e1576040517f08c379a0000000000000000000000000000000000000000000000000000000008152600401620009d89062001e07565b60405180910390fd5b85600160008473ffffffffffffffffffffffffffffffffffffffff1673ffffffffffffffffffffffffffffffffffffffff1681526020019081526020016000206000018190555084600160008473ffffffffffffffffffffffffffffffffffffffff1673ffffffffffffffffffffffffffffffffffffffff1681526020019081526020016000206001018190555083600160008473ffffffffffffffffffffffffffffffffffffffff1673ffffffffffffffffffffffffffffffffffffffff1681526020019081526020016000206002018190555082600181111562000ac357fe5b600160008473ffffffffffffffffffffffffffffffffffffffff1673ffffffffffffffffffffffffffffffffffffffff16815260200190815260200160002060030160006101000a81548160ff0219169083600181111562000b2157fe5b021790555081600160008473ffffffffffffffffffffffffffffffffffffffff1673ffffffffffffffffffffffffffffffffffffffff16815260200190815260200160002060030160016101000a81548173ffffffffffffffffffffffffffffffffffffffff021916908373ffffffffffffffffffffffffffffffffffffffff1602179055508173ffffffffffffffffffffffffffffffffffffffff167f116f04dd86285f4d2f708f1984c5fc0bca25d762fa06fd9defe4c22f6f4aa36b8760405162000bef919062001ccc565b60405180910390a2505050505050565b6000858585858560405162000c149062001292565b62000c2495949392919062001c20565b604051809103906000f08015801562000c41573d6000803e3d6000fd5b509050600160008773ffffffffffffffffffffffffffffffffffffffff1673ffffffffffffffffffffffffffffffffffffffff1681526020019081526020016000206004018190806001815401808255809150509060018203906000526020600020016000909192909190916101000a81548173ffffffffffffffffffffffffffffffffffffffff021916908373ffffffffffffffffffffffffffffffffffffffff160217905550508473ffffffffffffffffffffffffffffffffffffffff167f0bd3effa8c6dfdb23eaf76019fccdd9aa8a4ad537034a8b59ffda48c4ccc5e9d878360405162000d3492919062001bf3565b60405180910390a2505050505050565b600080600160008473ffffffffffffffffffffffffffffffffffffffff1673ffffffffffffffffffffffffffffffffffffffff168152602001908152602001600020600401805490509050600160008473ffffffffffffffffffffffffffffffffffffffff1673ffffffffffffffffffffffffffffffffffffffff168152602001908152602001600020600401600182038154811062000de057fe5b9060005260206000200160006101000a81549073ffffffffffffffffffffffffffffffffffffffff02191690556001915050919050565b80600181111562000e2457fe5b600260008473ffffffffffffffffffffffffffffffffffffffff1673ffffffffffffffffffffffffffffffffffffffff16815260200190815260200160002060060160016101000a81548160ff0219169083600181111562000e8257fe5b02179055505050565b60026020528060005260406000206000915090508060000154908060010154908060020154908060030154908060040154908060050154908060060160009054906101000a900460ff16908060060160019054906101000a900460ff16908060060160029054906101000a900473ffffffffffffffffffffffffffffffffffffffff16905089565b8173ffffffffffffffffffffffffffffffffffffffff167f0bd3effa8c6dfdb23eaf76019fccdd9aa8a4ad537034a8b59ffda48c4ccc5e9d848360405162000f5d92919062001bf3565b60405180910390a2505050565b60016020528060005260406000206000915090508060000154908060010154908060020154908060030160009054906101000a900460ff16908060030160019054906101000a900473ffffffffffffffffffffffffffffffffffffffff16905085565b62000fd7620012a0565b600160008373ffffffffffffffffffffffffffffffffffffffff1673ffffffffffffffffffffffffffffffffffffffff1681526020019081526020016000206040518060c00160405290816000820154815260200160018201548152602001600282015481526020016003820160009054906101000a900460ff1660018111156200105e57fe5b60018111156200106a57fe5b81526020016003820160019054906101000a900473ffffffffffffffffffffffffffffffffffffffff1673ffffffffffffffffffffffffffffffffffffffff1673ffffffffffffffffffffffffffffffffffffffff168152602001600482018054806020026020016040519081016040528092919081815260200182805480156200114b57602002820191906000526020600020905b8160009054906101000a900473ffffffffffffffffffffffffffffffffffffffff1673ffffffffffffffffffffffffffffffffffffffff168152602001906001019080831162001100575b5050505050815250509050919050565b600160008373ffffffffffffffffffffffffffffffffffffffff1673ffffffffffffffffffffffffffffffffffffffff1681526020019081526020016000206004018190806001815401808255809150509060018203906000526020600020016000909192909190916101000a81548173ffffffffffffffffffffffffffffffffffffffff021916908373ffffffffffffffffffffffffffffffffffffffff160217905550505050565b604051806101400160405280600080191681526020016000801916815260200160008019168152602001600080191681526020016000815260200160008152602001600060018111156200125557fe5b8152602001600060018111156200126857fe5b8152602001600073ffffffffffffffffffffffffffffffffffffffff168152602001606081525090565b610f1a806200216283390190565b6040518060c0016040528060008019168152602001600080191681526020016000801916815260200160006001811115620012d757fe5b8152602001600073ffffffffffffffffffffffffffffffffffffffff168152602001606081525090565b6000813590506200131281620020f9565b92915050565b600081359050620013298162002113565b92915050565b600082601f8301126200134157600080fd5b813562001358620013528262001e9f565b62001e71565b9150818183526020840193506020810190508360005b83811015620013a25781358601620013878882620013c3565b8452602084019350602083019250506001810190506200136e565b5050505092915050565b600081359050620013bd816200212d565b92915050565b600082601f830112620013d557600080fd5b8135620013ec620013e68262001ec8565b62001e71565b915080825260208301602083018583830111156200140957600080fd5b6200141683828462002087565b50505092915050565b600081359050620014308162002147565b92915050565b6000602082840312156200144957600080fd5b6000620014598482850162001301565b91505092915050565b6000602082840312156200147557600080fd5b6000620014858482850162001318565b91505092915050565b600080600060608486031215620014a457600080fd5b6000620014b48682870162001318565b9350506020620014c78682870162001318565b9250506040620014da8682870162001301565b9150509250925092565b600080600080600060a08688031215620014fd57600080fd5b60006200150d8882890162001318565b9550506020620015208882890162001318565b945050604086013567ffffffffffffffff8111156200153e57600080fd5b6200154c888289016200132f565b935050606086013567ffffffffffffffff8111156200156a57600080fd5b62001578888289016200132f565b92505060806200158b88828901620013ac565b9150509295509295909350565b60008060408385031215620015ac57600080fd5b6000620015bc8582860162001318565b9250506020620015cf858286016200141f565b9150509250929050565b60008060408385031215620015ed57600080fd5b6000620015fd8582860162001301565b9250506020620016108582860162001301565b9150509250929050565b600080600080600080600060e0888a0312156200163657600080fd5b6000620016468a828b01620013ac565b9750506020620016598a828b01620013ac565b96505060406200166c8a828b01620013ac565b95505060606200167f8a828b01620013ac565b9450506080620016928a828b016200141f565b93505060a0620016a58a828b016200141f565b92505060c0620016b88a828b0162001318565b91505092959891949750929550565b600080600080600060a08688031215620016e057600080fd5b6000620016f088828901620013ac565b95505060206200170388828901620013ac565b94505060406200171688828901620013ac565b935050606062001729888289016200141f565b92505060806200173c8882890162001318565b9150509295509295909350565b60006200175783836200179b565b60208301905092915050565b600062001771838362001989565b905092915050565b620017848162001fe1565b82525050565b620017958162001fe1565b82525050565b620017a68162001fcd565b82525050565b620017b78162001fcd565b82525050565b6000620017ca8262001f30565b620017d6818562001f89565b9350620017e38362001f05565b8060005b838110156200181a578151620017fe888262001749565b97506200180b8362001f5e565b925050600181019050620017e7565b5085935050505092915050565b6000620018348262001f25565b62001840818562001f78565b93506200184d8362001ef5565b8060005b838110156200188457815162001868888262001749565b9750620018758362001f51565b92505060018101905062001851565b5085935050505092915050565b60006200189e8262001f3b565b620018aa818562001f9a565b935083602082028501620018be8562001f15565b8060005b85811015620019005784840389528151620018de858262001763565b9450620018eb8362001f6b565b925060208a01995050600181019050620018c2565b50829750879550505050505092915050565b6200191d8162001ff5565b82525050565b6200192e8162002001565b82525050565b6200193f8162002001565b82525050565b62001950816200205f565b82525050565b62001961816200205f565b82525050565b620019728162002073565b82525050565b620019838162002073565b82525050565b6000620019968262001f46565b620019a2818562001fab565b9350620019b481856020860162002096565b620019bf81620020cc565b840191505092915050565b6000620019d960168362001fbc565b91507f43616e6e6f7420726567697374657220647269766572000000000000000000006000830152602082019050919050565b600062001a1b60158362001fbc565b91507f43616e6e6f7420726567697374657220726964657200000000000000000000006000830152602082019050919050565b60006101408301600083015162001a69600086018262001923565b50602083015162001a7e602086018262001923565b50604083015162001a93604086018262001923565b50606083015162001aa8606086018262001923565b50608083015162001abd608086018262001bd1565b5060a083015162001ad260a086018262001bd1565b5060c083015162001ae760c086018262001967565b5060e083015162001afc60e086018262001945565b5061010083015162001b1361010086018262001779565b5061012083015184820361012086015262001b2f828262001827565b9150508091505092915050565b600060c08301600083015162001b56600086018262001923565b50602083015162001b6b602086018262001923565b50604083015162001b80604086018262001923565b50606083015162001b95606086018262001967565b50608083015162001baa608086018262001779565b5060a083015184820360a086015262001bc4828262001827565b9150508091505092915050565b62001bdc8162002055565b82525050565b62001bed8162002055565b82525050565b600060408201905062001c0a60008301856200178a565b62001c196020830184620017ac565b9392505050565b600060a08201905062001c3760008301886200178a565b62001c4660208301876200178a565b818103604083015262001c5a818662001891565b9050818103606083015262001c70818562001891565b905062001c81608083018462001934565b9695505050505050565b6000602082019050818103600083015262001ca78184620017bd565b905092915050565b600060208201905062001cc6600083018462001912565b92915050565b600060208201905062001ce3600083018462001934565b92915050565b60006101208201905062001d01600083018c62001934565b62001d10602083018b62001934565b62001d1f604083018a62001934565b62001d2e606083018962001934565b62001d3d608083018862001be2565b62001d4c60a083018762001be2565b62001d5b60c083018662001978565b62001d6a60e083018562001956565b62001d7a6101008301846200178a565b9a9950505050505050505050565b600060a08201905062001d9f600083018862001934565b62001dae602083018762001934565b62001dbd604083018662001934565b62001dcc606083018562001978565b62001ddb60808301846200178a565b9695505050505050565b6000602082019050818103600083015262001e0081620019ca565b9050919050565b6000602082019050818103600083015262001e228162001a0c565b9050919050565b6000602082019050818103600083015262001e45818462001a4e565b905092915050565b6000602082019050818103600083015262001e69818462001b3c565b905092915050565b6000604051905081810181811067ffffffffffffffff8211171562001e9557600080fd5b8060405250919050565b600067ffffffffffffffff82111562001eb757600080fd5b602082029050602081019050919050565b600067ffffffffffffffff82111562001ee057600080fd5b601f19601f8301169050602081019050919050565b6000819050602082019050919050565b6000819050602082019050919050565b6000819050602082019050919050565b600081519050919050565b600081519050919050565b600081519050919050565b600081519050919050565b6000602082019050919050565b6000602082019050919050565b6000602082019050919050565b600082825260208201905092915050565b600082825260208201905092915050565b600082825260208201905092915050565b600082825260208201905092915050565b600082825260208201905092915050565b600062001fda8262002035565b9050919050565b600062001fee8262002035565b9050919050565b60008115159050919050565b6000819050919050565b60008190506200201b82620020dd565b919050565b60008190506200203082620020eb565b919050565b600073ffffffffffffffffffffffffffffffffffffffff82169050919050565b6000819050919050565b60006200206c826200200b565b9050919050565b6000620020808262002020565b9050919050565b82818337600083830152505050565b60005b83811015620020b657808201518184015260208101905062002099565b83811115620020c6576000848401525b50505050565b6000601f19601f8301169050919050565b60028110620020e857fe5b50565b60028110620020f657fe5b50565b620021048162001fcd565b81146200211057600080fd5b50565b6200211e8162001fe1565b81146200212a57600080fd5b50565b620021388162002001565b81146200214457600080fd5b50565b620021528162002055565b81146200215e57600080fd5b5056fe60806040523480156200001157600080fd5b5060405162000f1a38038062000f1a8339818101604052620000379190810190620003e7565b846000806101000a81548173ffffffffffffffffffffffffffffffffffffffff021916908373ffffffffffffffffffffffffffffffffffffffff16021790555083600160006101000a81548173ffffffffffffffffffffffffffffffffffffffff021916908373ffffffffffffffffffffffffffffffffffffffff1602179055508260029080519060200190620000d09291906200014d565b508160039080519060200190620000e99291906200014d565b50806004819055506000600560006101000a81548160ff0219169083151502179055506000600560016101000a81548160ff0219169083151502179055506000600560026101000a81548160ff0219169083151502179055505050505050620005c7565b828054828255906000526020600020908101928215620001a1579160200282015b82811115620001a05782518290805190602001906200018f929190620001b4565b50916020019190600101906200016e565b5b509050620001b091906200023b565b5090565b828054600181600116156101000203166002900490600052602060002090601f016020900481019282601f10620001f757805160ff191683800117855562000228565b8280016001018555821562000228579182015b82811115620002275782518255916020019190600101906200020a565b5b5090506200023791906200026c565b5090565b6200026991905b808211156200026557600081816200025b919062000294565b5060010162000242565b5090565b90565b6200029191905b808211156200028d57600081600090555060010162000273565b5090565b90565b50805460018160011615610100020316600290046000825580601f10620002bc5750620002dd565b601f016020900490600052602060002090810190620002dc91906200026c565b5b50565b600081519050620002f18162000593565b92915050565b600082601f8301126200030957600080fd5b8151620003206200031a82620004c9565b6200049b565b9150818183526020840193506020810190508360005b838110156200036a57815186016200034f88826200038b565b84526020840193506020830192505060018101905062000336565b5050505092915050565b6000815190506200038581620005ad565b92915050565b600082601f8301126200039d57600080fd5b8151620003b4620003ae82620004f2565b6200049b565b91508082526020830160208301858383011115620003d157600080fd5b620003de8382846200055d565b50505092915050565b600080600080600060a086880312156200040057600080fd5b60006200041088828901620002e0565b95505060206200042388828901620002e0565b945050604086015167ffffffffffffffff8111156200044157600080fd5b6200044f88828901620002f7565b935050606086015167ffffffffffffffff8111156200046d57600080fd5b6200047b88828901620002f7565b92505060806200048e8882890162000374565b9150509295509295909350565b6000604051905081810181811067ffffffffffffffff82111715620004bf57600080fd5b8060405250919050565b600067ffffffffffffffff821115620004e157600080fd5b602082029050602081019050919050565b600067ffffffffffffffff8211156200050a57600080fd5b601f19601f8301169050602081019050919050565b60006200052c826200053d565b9050919050565b6000819050919050565b600073ffffffffffffffffffffffffffffffffffffffff82169050919050565b60005b838110156200057d57808201518184015260208101905062000560565b838111156200058d576000848401525b50505050565b6200059e816200051f565b8114620005aa57600080fd5b50565b620005b88162000533565b8114620005c457600080fd5b50565b61094380620005d76000396000f3fe608060405234801561001057600080fd5b50600436106100575760003560e01c806306ab2e061461005c578063114dba9c14610078578063415f3dc31461009d578063530cce55146100b957806381696320146100d5575b600080fd5b610076600480360361007191908101906105ca565b6100f1565b005b610080610164565b604051610094989796959493929190610722565b60405180910390f35b6100b760048036036100b291908101906105ca565b6103d2565b005b6100d360048036036100ce91908101906105a1565b610445565b005b6100ef60048036036100ea91908101906105ca565b610504565b005b801515600560009054906101000a900460ff1615151415610147576040517f08c379a000000000000000000000000000000000000000000000000000000000815260040161013e906107ae565b60405180910390fd5b80600560006101000a81548160ff02191690831515021790555050565b6000806060806000806000806000809054906101000a900473ffffffffffffffffffffffffffffffffffffffff16600160009054906101000a900473ffffffffffffffffffffffffffffffffffffffff1660026003600454600560009054906101000a900460ff16600560019054906101000a900460ff16600560029054906101000a900460ff1687975086965085805480602002602001604051908101604052809291908181526020016000905b828210156102cf578382906000526020600020018054600181600116156101000203166002900480601f0160208091040260200160405190810160405280929190818152602001828054600181600116156101000203166002900480156102bb5780601f10610290576101008083540402835291602001916102bb565b820191906000526020600020905b81548152906001019060200180831161029e57829003601f168201915b505050505081526020019060010190610213565b50505050955084805480602002602001604051908101604052809291908181526020016000905b828210156103b2578382906000526020600020018054600181600116156101000203166002900480601f01602080910402602001604051908101604052809291908181526020018280546001816001161561010002031660029004801561039e5780601f106103735761010080835404028352916020019161039e565b820191906000526020600020905b81548152906001019060200180831161038157829003601f168201915b5050505050815260200190600101906102f6565b505050509450975097509750975097509750975097509091929394959697565b801515600560029054906101000a900460ff1615151415610428576040517f08c379a000000000000000000000000000000000000000000000000000000000815260040161041f906107ae565b60405180910390fd5b80600560026101000a81548160ff02191690831515021790555050565b80600160006101000a81548173ffffffffffffffffffffffffffffffffffffffff021916908373ffffffffffffffffffffffffffffffffffffffff1602179055506000809054906101000a900473ffffffffffffffffffffffffffffffffffffffff1673ffffffffffffffffffffffffffffffffffffffff168173ffffffffffffffffffffffffffffffffffffffff167f1fceffeeb023eb0adeba901d55c274290298e737e7e9b57ef93f9c86594b006460405160405180910390a350565b801515600560019054906101000a900460ff161515141561055a576040517f08c379a0000000000000000000000000000000000000000000000000000000008152600401610551906107ae565b60405180910390fd5b80600560016101000a81548160ff02191690831515021790555050565b600081359050610586816108d2565b92915050565b60008135905061059b816108e9565b92915050565b6000602082840312156105b357600080fd5b60006105c184828501610577565b91505092915050565b6000602082840312156105dc57600080fd5b60006105ea8482850161058c565b91505092915050565b60006105ff83836106a9565b905092915050565b61061081610834565b82525050565b6000610621826107de565b61062b8185610801565b93508360208202850161063d856107ce565b8060005b85811015610679578484038952815161065a85826105f3565b9450610665836107f4565b925060208a01995050600181019050610641565b50829750879550505050505092915050565b61069481610858565b82525050565b6106a381610864565b82525050565b60006106b4826107e9565b6106be8185610812565b93506106ce81856020860161088e565b6106d7816108c1565b840191505092915050565b60006106ef601483610823565b91507f536f6d65206572726f72206f63637572726564210000000000000000000000006000830152602082019050919050565b600061010082019050610738600083018b610607565b610745602083018a610607565b81810360408301526107578189610616565b9050818103606083015261076b8188610616565b905061077a608083018761069a565b61078760a083018661068b565b61079460c083018561068b565b6107a160e083018461068b565b9998505050505050505050565b600060208201905081810360008301526107c7816106e2565b9050919050565b6000819050602082019050919050565b600081519050919050565b600081519050919050565b6000602082019050919050565b600082825260208201905092915050565b600082825260208201905092915050565b600082825260208201905092915050565b600061083f8261086e565b9050919050565b60006108518261086e565b9050919050565b60008115159050919050565b6000819050919050565b600073ffffffffffffffffffffffffffffffffffffffff82169050919050565b60005b838110156108ac578082015181840152602081019050610891565b838111156108bb576000848401525b50505050565b6000601f19601f8301169050919050565b6108db81610846565b81146108e657600080fd5b50565b6108f281610858565b81146108fd57600080fd5b5056fea365627a7a723158200d035144b4d409cf4d73cd850fd640ab49e37395b7abda1fc6147675607c8ce26c6578706572696d656e74616cf564736f6c63430005100040a365627a7a72315820aef28f8bd929296f3e82eef19c3cfe1033c37b58666b8e1ba1409eed930740bf6c6578706572696d656e74616cf564736f6c63430005100040",
  "source": "pragma solidity >=0.4.21 <0.7.0;\npragma experimental ABIEncoderV2;\n\nimport './Ride.sol';\n\ncontract RideManager {\n    \n    //// Inits ////\n    bytes32 constant NULL = \"\";\n    address[] driversArray;\n\n    //// Enums ////\n    enum roles {\n        rider,\n        driver\n    }\n    \n    enum currentStatus {\n        free,\n        busy\n    }\n    \n    \n    //// Structs ////\n    struct riderStruct {\n        bytes32 name;\n        bytes32 contact;\n        bytes32 email;\n        roles role;\n        address payable riderAddr;\n        address[] rides;\n    }\n    \n    \n    struct driverStruct {\n        bytes32 name;\n        bytes32 contact;\n        bytes32 email;\n        bytes32 carNo;\n        uint256 noOfSeats;\n        uint256 rating;\n        roles role;\n        currentStatus status;\n        address payable driverAddr; \n        address[] rides;\n    }\n    \n    \n    //// Mappings ////\n    mapping (address => riderStruct) public ridersMapping;\n    mapping (address => driverStruct) public driversMapping;\n\n\n    //// Events ////\n    event RiderRegister(address indexed _address, bytes32 name);\n    event DriverRegister(address indexed _address, bytes32 name);\n    event requestDriverEvent(address payable _riderAddr, address payable indexed _driverAddr, address rideAddr);\n    \n    \n    //// Constructor ////\n    constructor() public {}\n    \n    \n    //// Modifiers ////\n    modifier onlyRider(address payable _riderAddr) {\n        require(_riderAddr == msg.sender, \"Cannot register rider\");\n        _;\n    }\n    \n    modifier onlyDriver(address payable _driverAddr) {\n        require(_driverAddr == msg.sender, \"Cannot register driver\");\n        _;\n    }\n\n    \n    //// Functions ////\n    \n    /// Riders ///\n    function registerRider(bytes32 _name, bytes32 _contact, bytes32 _email, uint _role, address payable _riderAddr) external onlyRider(_riderAddr) {\n        \n        ridersMapping[_riderAddr].name = _name;\n        ridersMapping[_riderAddr].contact = _contact;\n        ridersMapping[_riderAddr].email = _email;\n        ridersMapping[_riderAddr].role = roles(_role);\n        ridersMapping[_riderAddr].riderAddr = _riderAddr;\n        \n        emit RiderRegister(_riderAddr, _name);\n    }\n    \n    function getRiderInfo(address payable _riderAddr) external view returns(riderStruct memory _riderStruct) {\n        return ridersMapping[_riderAddr];\n    }\n    \n    function cancelRide(address payable _riderAddr) public returns(bool) {\n        uint len = ridersMapping[_riderAddr].rides.length;\n        delete ridersMapping[_riderAddr].rides[len - 1];\n        return true;\n    }\n    \n    \n    /// Drivers ///\n\n    function registerDriver(bytes32 _name, bytes32 _contact, bytes32 _email, bytes32 _carNo, uint256 _seats, uint _role, address payable _driverAddr) external onlyDriver(_driverAddr) {\n        \n        driversMapping[_driverAddr].name = _name;\n        driversMapping[_driverAddr].contact = _contact;\n        driversMapping[_driverAddr].email = _email;\n        driversMapping[_driverAddr].carNo = _carNo;\n        driversMapping[_driverAddr].noOfSeats = _seats;\n        driversMapping[_driverAddr].rating = 5;\n        driversMapping[_driverAddr].status = currentStatus(0);\n        driversMapping[_driverAddr].role = roles(_role);\n        driversMapping[_driverAddr].driverAddr = _driverAddr;\n        \n        driversArray.push(_driverAddr);\n        \n        emit DriverRegister(_driverAddr, _name);\n    }\n    \n    function getDriverInfo(address payable _driverAddr) external view returns(driverStruct memory _driverStruct) {\n        return driversMapping[_driverAddr];\n    }\n    \n    function updateDriverStatus(address payable _driverAddr, uint _status) external {\n        driversMapping[_driverAddr].status = currentStatus(_status);\n    }\n    \n    function updateRideInformation(address _driverAddr, address _rideAddr) external {\n        ridersMapping[_driverAddr].rides.push(_rideAddr);\n    }\n    \n    \n    /// Main ///\n    \n    function requestRide(address payable _riderAddr, address payable _driverAddr, string[] memory _fromAddr, string[] memory _toAddr, bytes32 _amount) public {\n        Ride ride = new Ride(\n            _riderAddr,\n            _driverAddr,\n            _fromAddr,\n            _toAddr,\n            _amount\n        );\n        ridersMapping[_riderAddr].rides.push(address(ride));\n        \n        emit requestDriverEvent(_riderAddr, _driverAddr, address(ride));\n    }\n    \n    function returnDriversAvailable() external view returns(address[] memory) {\n        return driversArray;\n    }\n    \n    function requestDriver(address payable _riderAddr, address payable _driverAddr, address _rideAddr) external {\n        emit requestDriverEvent(_riderAddr, _driverAddr, _rideAddr);\n    }\n}",
  "sourcePath": "/Users/sherwyndsouza/Desktop/GitHub/KEDS-Rideshare/contracts/RideManager.sol",
  "compiler": {
    "name": "solc",
    "version": "0.5.16+commit.9c3226ce.Emscripten.clang"
  },
  "schemaVersion": "3.2.2",
  "updatedAt": "2021-02-20T12:09:13.907Z",
  "networkType": "ethereum",
  "devdoc": {
    "methods": {}
  },
  "userdoc": {
    "methods": {
      "constructor": "/ Constructor ////",
      "registerDriver(bytes32,bytes32,bytes32,bytes32,uint256,uint256,address)": {
        "notice": "Drivers ///"
      },
      "registerRider(bytes32,bytes32,bytes32,uint256,address)": {
        "notice": "/ Functions //// Riders ///"
      },
      "requestRide(address,address,string[],string[],bytes32)": {
        "notice": "Main ///"
      }
    }
  }
}